:020000048780F3
:1000000000000FE11F00C0E3130080E300F029E1CE
:1000100000D01FE5010000EA000020800000000081
:0800200004F01FE56701808771
:1000280080B400AF44F26803C0F20C234FF0FF32F3
:100038001A6044F26C03C0F20C234FF0FF321A60CE
:1000480044F27003C0F20C234FF0FF321A6044F2FE
:100058007403C0F20C234FF0FF321A6044F27803A5
:10006800C0F20C234FF0FF321A6044F27C03C0F256
:100078000C234FF0FF321A604FF48143C0F20C2377
:100088004FF0FF321A6000BFBD465DF8047B704731
:1000980080B400AF6823C0F20E2305221A604FF423
:1000A8003D73C0F20E2341F2B0021A604CF2040311
:1000B800C0F2092308221A604FF44043C0F2092312
:0E00C80000221A6000BFBD465DF8047B704741
:1000D60080B400AF4FF44043C0F209231A684FF4CE
:1000E6004043C0F2092322F008021A6000BFBD4651
:0600F6005DF8047B704779
:1000FC0080B400AF4FF44043C0F209231A684FF4A8
:10010C004043C0F2092342F008021A6000BFBD460A
:06011C005DF8047B704752
:1001220080B483B000AF786000BF7B685A1E7A60EB
:10013200002BFAD100BF0C37BD465DF8047B704737
:1001420080B582B000AF786003E040F2FF70FFF745
:10015200E7FF7B685A1E7A60002BF6D100BF083792
:04016200BD4680BD59
:1001660080B500AFFFF75DFFFFF793FFFFF7C3FF13
:100176004FF4FA70FFF7E2FFFFF7AAFF4FF4FA70A9
:06018600FFF7DCFFF2E7C9
:0400000587800000F0
:00000001FF
